:100000000C942A000C9447000C9447000C94470071
:100010000C9447000C9447000C9447000C94470044
:100020000C9447000C9447000C9447000C94470034
:100030000C9447000C9447000C9447000C94470024
:100040000C9447000C9447000C9447000C94470014
:100050000C94470011241FBECFE5D8E0DEBFCDBF12
:1000600010E0A0E6B0E0E2EAF3E002C005900D92F5
:10007000AC38B107D9F710E0ACE8B0E001C01D9290
:10008000A339B107E1F70E9473010C94CF010C94DE
:1000900000008CB95D9BFECF08955F9BFECF8CB1B5
:1000A0000895CF93DF93EC018881882331F0219666
:1000B0000E94490089918823D9F7DF91CF91089553
:1000C0001F93CF93DF9380E690E00E9451008FEF63
:1000D00094E3ACE081509040A040E1F700C0000004
:1000E00087E690E00E9451008FEF94E3ACE08150EE
:1000F0009040A040E1F700C0000085E790E00E943A
:1001000051008FEF94E3ACE081509040A040E1F7C4
:1001100000C000008DE00E9449008FEF93ECA9E041
:1001200081509040A040E1F700C0000084E50E94AB
:100130004900809190001AE0612F0E94C301805D08
:100140000E94490080919000612F0E94C301892F75
:10015000805D0E94490088E40E944900CEE8D0E01A
:100160008881612F0E94C301805D0E9449008881BF
:10017000612F0E94C301892F805D0E9449008FEF8B
:1001800094E3ACE081509040A040E1F700C0000053
:100190008AE10E944900DF91CF911F91089508954F
:1001A00081E0989B80E00895CF93DF93C4EFD1E086
:1001B00002C0219789F00E94D0008823D1F388E7FC
:1001C0008A95F1F70E94D000882341F00E94D00068
:1001D0008823E1F781E003C080E001C080E0DF9187
:1001E000CF910895EF92FF921F93CF93DF93C7E0D3
:1001F000D0E010E0EE24FF24E3940E94D400882392
:1002000049F0C7010C2E02C0880F991F0A94E2F72B
:10021000182B09C0C7010C2E02C0880F991F0A9421
:10022000E2F78095182321973FEFCF3FD30729F7B7
:10023000812FDF91CF911F91FF90EF900895A098AB
:100240000895A09A0895A89A0895A89808950E94DC
:1002500021010E9425018FE99CE80197F1F700C078
:1002600000000E9423019AE69A95F1F700C00E94CF
:100270001F010895CF93DF93C4EFD1E002C021970F
:1002800079F00E94D0008823D1F3C4EFD1E002C0FE
:10029000219741F00E94D0008823D1F781E003C06C
:1002A00080E001C080E0DF91CF910895DC01FC0186
:1002B00090E020E030E08191980F2F5F3F4F243095
:1002C0003105C9F781E014962C911497921380E0C0
:1002D00008958FEF94E3ACE081509040A040E1F7A7
:1002E00000C000000895EF92FF920F931F93CF93E9
:1002F000DF9310BC83E389B988E18AB986E880BDC1
:100300000EE810E0C801F02EE92E0E9427010E949D
:100310003A018823B9F010928D0010928C00C0E051
:10032000D0E00E94F200C00FD11F8883C0918C00E2
:10033000D0918D002196D0938D00C0938C00C53054
:10034000D10578F38F2D9E2D0E9456018823B1F0A0
:100350008FEF93EDA0E381509040A040E1F700C003
:1003600000000E9469018FEF93EDA0E3815090405F
:10037000A040E1F700C000000E946901B099C5CF1C
:100380000E946000C2CF991B79E004C0991F9617A4
:1003900008F0961B881F7A95C9F780950895F89400
:0203A000FFCF8D
:1003A2000D0A41540D0A000D0A41542B434D474694
:1003B2003D310D0A000D0A41542B434D47533D2256
:0C03C200383538363832353139362200F3
:00000001FF
