:100000000C942A000C943F000C943F000C943F0089
:100010000C943F000C943F000C943F000C943F0064
:100020000C943F000C943F000C943F000C943F0054
:100030000C943F000C943F000C943F000C943F0044
:100040000C943F000C943F000C943F000C943F0034
:100050000C943F0011241FBECFE5D8E0DEBFCDBF1A
:1000600010E0A0E6B0E0E4ECF1E002C005900D92F3
:10007000A237B107D9F70E9462000C94E0000C94FB
:1000800000001ABA80E487B984E886B908958064CC
:1000900087B9369A349BFECF84B195B108958CB957
:1000A0005D9BFECF0895CF93DF93EC018881882379
:1000B00031F021960E944F0089918111FBCFDF9191
:1000C000CF910895BA9A18BA8AB188618AB980B571
:1000D000866880BD83E389B90E9441000F2EF4E653
:1000E000EF2EF12CF02D0AE010E082E090E00E946B
:1000F0004700EC0180E690E00E945300CE01B7017A
:100100000E94B800EC0180E3860F0E944F00CE01F0
:10011000B8010E94B800C82F80E3860F0E944F00EC
:1001200080E38C0F0E944F008EE690E00E94530007
:100130002FEF83ED90E3215080409040E1F700C025
:1001400000009F9BD2CFC29A2FEF83ED90E3215006
:1001500080409040E1F700C00000C2982FEF83ED8F
:1001600090E3215080409040E1F700C00000BDCFF7
:1001700097FB072E16F4009407D077FD09D00E9454
:10018000CC0007FC05D03EF4909581959F4F0895D3
:10019000709561957F4F0895AA1BBB1B51E107C065
:1001A000AA1FBB1FA617B70710F0A61BB70B881F07
:1001B000991F5A95A9F780959095BC01CD01089596
:0401C000F894FFCFE1
:1001C40073656E736F722076616C75653A000D0A03
:0201D400000029
:00000001FF
