S017000050726573737572655F73656E736F722E73726563BB
S11300000C94E8000C9405010C9405010C94050172
S11300100C9405010C9405010C9405010C94050144
S11300200C9405010C9405010C9405010C94050134
S11300300C9405010C9405010C9405010C94050124
S11300400C9405010C9405010C9405010C94050114
S11300500C94050107634236B79BD8A71A39685632
S113006018AEBAAB558C1D3CB7CC5763BD6DEDFDD6
S1130070753EF6177231BF000000803F0800000093
S1130080BE922449123EABAAAA2ABECDCCCC4C3E89
S113009000000080BEABAAAAAA3E00000000BF0078
S11300A00000803F0000000000084178D3BB438774
S11300B0D1133D190E3CC3BD4282AD2B3E68EC8288
S11300C076BED98FE1A93E4C80EFFFBE01C4FF7F0D
S11300D03F000000000000407A10F35A00A0724E66
S11300E018090010A5D4E80000E87648170000E4D9
S11300F00B54020000CA9A3B000000E1F505000021
S113010080969800000040420F000000A086010085
S11301100000102700000000E80300000000640055
S1130120000000000A0000000000010000000000C0
S11301302C76D888DC674F0823DFC1DFAE59E1B1E4
S1130140B796E5E3E453C63AE651997696E8E6C2F3
S11301508426EB898C9B62ED407C6FFCEFBC9C9FFA
S113016040F2BAA56FA5F490055A2AF75C936B6C1C
S1130170F9676DC11BFCE0E40D47FEF520E6B50010
S1130180D0ED902E0300943577050080841E08007E
S113019000204E0A000000C80C333333330F986E2E
S11301A012831141EF8D2114893BE65516CFFEE6EB
S11301B0DB18D1844B381BF77C1D901DA4BBE424B1
S11301C0203284725E228100C9F124ECA1E53D272E
S11301D011241FBECFE5D4E0DEBFCDBF10E0A0E602
S11301E0B0E0EAEBF7E102C005900D92A639B10741
S11301F0D9F721E0A6E9B0E001C01D92A830B2070A
S1130200E1F70E94C6040C94DB0B0C940000CF931E
S1130210DF93D82FC62F8EEE0E944B058D2F0E94A0
S113022072058C2F0E9472050E946C05DF91CF919C
S11302300895DF92EF92FF920F931F93CF93DF9372
S1130240C82FF62ED72FD42E8EEE0E944B058C2F5E
S11302500E9472058FEE0E946905DD20D1F00F2DFA
S11302601D2FC0E0D0E0ED2CF12C81E0E81AF1085C
S1130270CE15DF0529F40E948605F801808304C0A9
S11302800E947F05F801808321960F5F1F4FCD15D3
S113029078F30E946C05DF91CF911F910F91FF902D
S11302A0EF90DF9008950F931F93CF93DF93EAEEBF
S11302B0F0E0C6E9D0E00C811D812E813F810993D5
S11302C0199329933993CE17DF07A9F76093E600B2
S11302D07093E7008093E8009093E900A6E9B0E00A
S11302E060E070E0CB010D911D912D913D91600F67
S11302F0711F821F931FAE17BF07A9F725E130E0D6
S113030040E050E00E94E208CA01B901DF91CF91B8
S11303101F910F910895CF93DF9300D0CDB7DEB72F
S11303201A82198242E0BE016F5F7F4F8AEA0E94FF
S11303301901898190E0982F88272A81822B909334
S1130340FF008093FE0042E0BE016F5F7F4F8CEAA6
S11303500E941901898190E0982F88272A81822B95
S1130360909307018093060142E0BE016F5F7F4FC7
S11303708EEA0E941901898190E0982F88272A81AA
S1130380822B9093F3008093F20042E0BE016F5FF2
S11303907F4F80EB0E941901898190E0982F882774
S11303A02A81822B9093EB008093EA0042E0BE0105
S11303B06F5F7F4F82EB0E941901898190E0982F33
S11303C088272A81822B909303018093020142E0C3
S11303D0BE016F5F7F4F84EB0E941901898190E019
S11303E0982F88272A81822B9093FB008093FA0010
S11303F042E0BE016F5F7F4F86EB0E941901898145
S113040090E0982F88272A81822B9093F90080937B
S1130410F80042E0BE016F5F7F4F88EB0E94190134
S1130420898190E0982F88272A81822B9093ED0070
S11304308093EC0042E0BE016F5F7F4F8AEB0E9425
S11304401901898190E0982F88272A81822B909323
S113045001018093000142E0BE016F5F7F4F8CEB8E
S11304600E941901898190E0982F88272A81822B84
S1130470909305018093040142E0BE016F5F7F4FBA
S11304808EEB0E941901898190E0982F88272A8198
S1130490822B9093FD008093FC000F900F90DF91CE
S11304A0CF910895CF92DF92EF92FF920F931F9313
S11304B0CF93DF9300D0CDB7DEB71A8219826EE2F4
S11304C084EF0E94070181EE94E00197F1F700C0E8
S11304D0000042E0BE016F5F7F4F86EF0E9419016A
S11304E02981822F90E0A0E0B0E04427582F692FA3
S11304F07A2F8A81482B8091FA009091FB009A010F
S1130500AB01281B390B41095109A0910201B0919B
S113051003010E9401096B017C010B2EBFE0F594DD
S1130520E794D794C794BA95D1F7B02D609104019C
S113053070910501CB01AA2797FDA095BA2FBC01A4
S1130540CD01052E5BE0660F771F881F991F5A9512
S1130550D1F7502D2091FC003091FD008901222714
S113056017FD2095322FA90198012C0D3D1D4E1D1C
S11305705F1D0E94E208C20ED31EE41EF51EC09247
S1130580F400D092F500E092F600F092F7000F909C
S11305900F90DF91CF911F910F91FF90EF90DF901B
S11305A0CF9008954F925F926F927F928F929F9215
S11305B0AF92BF92CF92DF92EF92FF92CF93DF93ED
S11305C0CDB7DEB72B970FB6F894DEBF0FBECDBF05
S11305D019821A821B820E94520264EF84EF0E94E5
S11305E0070183E699E10197F1F700C0000043E0B9
S11305F0BE016F5F7F4F86EF0E941901C090F40027
S1130600D090F500E090F600F090F70090EAC91A57
S11306109FE0D90AE108F108A7019601C701B601D4
S11306200E94B0084B015C01A091F200B091F3006C
S11306300E940C092B013C01032E3DE07594679444
S1130640579447943A95D1F7302DA091F800B09182
S1130650F900A5019401012E1CE0559547953795A5
S113066027951A95D1F7102D0E940C09BB2797FDE9
S1130670B095AB2F480E591E6A1E7B1E22E0420E17
S1130680511C611C711CD301C201B595A7959795A6
S11306908795B595A795979587959C01AD01305899
S11306A04F4F5F4FA091EA00B091EB000E94010907
S11306B09B01AC01012E1FE0569547953795279570
S11306C01A95D1F7102D288739874A875B872981A6
S11306D08A8190E0A0E0B0E0BA2FA92F982F882754
S11306E0A22B2B81822B9C01AD01689414F85595A3
S11306F04795379527951694D1F72C833D834E83E0
S11307005F834090FE005090FF00662457FC609485
S1130710762C440C551C661C771C440C551C661C1A
S1130720771CA091EC00B091ED00A50194010E940A
S11307300C094B015C01072E77E1B594A7949794BB
S113074087947A95D1F7702DA0910601B091070195
S1130750A70196010E940C09DC01CB01072E7BE066
S1130760B595A795979587957A95D1F7702D880EAD
S1130770991EAA1EBB1E480C591C6A1C7B1C440CE7
S1130780551C661C771C2C813D814E815F81241988
S1130790350946095709AAE6B8E10E9401099923D7
S11307A06CF0660F771F881F991F288539854A8545
S11307B05B850E94C00869017A010CC028853985CF
S11307C04A855B850E94C00869017A01CC0CDD1C56
S11307D0EE1CFF1C9927F7FC9A958F2D7E2D6D2D0D
S11307E09B01AC010E94B0089B01AC01AEEDBBE0E3
S11307F00E9401094C01BB2497FCB094AB2CA3E4E8
S1130800B3EEA70196010E940F09BB2797FDB0958F
S1130810AB2F880E991EAA1EBB1E3FEC830E3EE032
S1130820931EA11CB11CD501C401689413F8B5959D
S1130830A795979587951694D1F7BC01CD016C0DBA
S11308407D1D8E1D9F1D6093EE007093EF008093BD
S1130850F0009093F1000E9453016093EE007093B6
S1130860EF008093F0009093F1002B960FB6F8946C
S1130870DEBF0FBECDBFDF91CF91FF90EF90DF9031
S1130880CF90BF90AF909F908F907F906F905F902C
S11308904F9008950E9452028091F4009091F500C7
S11308A0A091F600B091F7000896A11DB11DBC01FE
S11308B0CD01689413F89595879577956795169467
S11308C0D1F70E945C0620E030E040E251E40E944F
S11308D0F20508950E94D2026091EE007091EF003B
S11308E08091F0009091F10008950E94D2026091ED
S11308F0EE007091EF008091F0009091F1000E9461
S11309005C0620E836EE45EC57E40E94F20521E04F
S11309103EED42E45EE30E94E8069B01AC0160E028
S113092070E080E89FE30E948D052BE43AE34DEBF1
S113093057E30E94F20520E030E0A9010E948E05F1
S11309400895CF930E94290583E08A95F1F700006A
S11309500E948B010E945202C5E10E94D202C15042
S1130960E1F7CF9108958CB95D9BFECF0895CF93A5
S1130970DF93EC018881882331F021960E94B3042F
S113098089918111FBCFDF91CF910895CF93DF93AC
S1130990CDB7DEB72A970FB6F894DEBF0FBECDBF32
S11309A010BC8FEC89B988E18AB986E880BD0E94C1
S11309B0A1040E944A048E010F5F1F4F22E04AE007
S11309C00E94230980E690E00E94B704C8010E94B7
S11309D0B7048EE690E00E94B70485E790E00E9499
S11309E0B7040E946A042AE0A8010E94440988E727
S11309F090E00E94B704C8010E94B70483E890E025
S1130A000E94B70485E790E00E94B7040E94750431
S1130A1022E04AE00E94230987E890E00E94B7049C
S1130A20C8010E94B70482E990E00E94B70485E7F8
S1130A3090E00E94B70485E790E00E94B7042FEF8E
S1130A408EE994E2215080409040E1F700C000001C
S1130A50B0CF11B880EC80B9089594EA96BF06B679
S1130A6007FEFDCF91B1987F983011F0903179F461
S1130A7083B984E886BF06B607FEFDCF91B1987F9F
S1130A80983139F081E0903429F480E0089581E0D0
S1130A90089580E0089524EA34E844E926BF06B6C0
S1130AA007FEFDCF91B1987F983011F09031B1F7E6
S1130AB083B936BF06B607FEFDCF91B1987F903259
S1130AC011F0983529F446BF06B604FCFDCFE6CFF5
S1130AD008950E942D05089584E986BF06B604FC96
S1130AE0FDCF089583B984E886BF06B607FEFDCF1F
S1130AF091B1987F81E0983209F480E0089584EC04
S1130B0086BF06B607FEFDCF83B1089584E886BF8D
S1130B1006B607FEFDCF83B108955058BB27AA2718
S1130B200ED01CC10DD130F012D120F031F49F3F12
S1130B3011F41EF402C10EF4E095E7FBF8C0E92FAE
S1130B401ED180F3BA17620773078407950718F05C
S1130B5071F49EF536C10EF4E0950B2EBA2FA02D3C
S1130B600B01B90190010C01CA01A0011124FF2756
S1130B70591B99F0593F50F4503E68F11A16F04051
S1130B80A22F232F342F4427585FF3CF4695379550
S1130B902795A795F0405395C9F77EF41F16BA0B15
S1130BA0620B730B840BBAF09150A1F0FF0FBB1FC3
S1130BB0661F771F881FC2F70EC0BA0F621F731F0C
S1130BC0841F48F4879577956795B795F7959E3F69
S1130BD008F0B3CF9395880F08F09927EE0F9795F7
S1130BE0879508950CD0BAC0B2D040F0A9D030F0A7
S1130BF021F45F3F19F09BC05111E4C09EC0BFD0E7
S1130C0098F39923C9F35523B1F3951B550BBB27CF
S1130C10AA2762177307840738F09F5F5F4F220F7C
S1130C20331F441FAA1FA9F333D00E2E3AF0E0E875
S1130C3030D091505040E695001CCAF729D0FE2FC1
S1130C4027D0660F771F881FBB1F26173707480753
S1130C50AB07B0E809F0BB0B802DBF01FF27935809
S1130C605F4F2AF09E3F510568F061C0ABC05F3F03
S1130C70ECF3983EDCF3869577956795B795F795F1
S1130C809F5FC9F7880F911D9695879597F90895E9
S1130C90E1E0660F771F881FBB1F62177307840785
S1130CA0BA0720F0621B730B840BBA0BEE1F88F794
S1130CB0E0950895E89409C097FB3EF490958095DB
S1130CC0709561957F4F8F4F9F4F9923A9F0F92F0E
S1130CD096E9BB279395F695879577956795B7958C
S1130CE0F111F8CFFAF4BB0F11F460FF1BC06F5F72
S1130CF07F4F8F4F9F4F16C0882311F096E911C084
S1130D00772321F09EE8872F762F05C0662371F0A4
S1130D1096E8862F70E060E02AF09A95660F771FB8
S1130D20881FDAF7880F9695879597F9089597F9AC
S1130D309F6780E870E060E008959FEF80EC08957D
S1130D4000240A94161617061806090608950024A6
S1130D500A9412161306140605060895092E039420
S1130D60000C11F4882352F0BB0F40F4BF2B11F494
S1130D7060FF04C06F5F7F4F8F4F9F4F089557FDF3
S1130D809058440F551F59F05F3F71F04795880FF5
S1130D9097FB991F61F09F3F79F08795089512168C
S1130DA013061406551FF2CF4695F1DF08C0161638
S1130DB017061806991FF1CF8695710561050894E9
S1130DC00895E894BB2766277727CB0197F9089500
S1130DD0FA01EE0FFF1F30962105310599F16115D7
S1130DE0710561F48038BFE39B0749F1689490383A
S1130DF0810561F08038BFEF9B0741F0992342F5EC
S1130E00FF3FE1053105210511F1E8940894E795C8
S1130E10D901AA2329F4AB2FBE2FF85FD0F310C059
S1130E20FF5F70F4A695E0F7F73950F019F0FF3A38
S1130E3038F49F779F930CD00F9007FC9058089537
S1130E403EF07BCF60E070E080E89FE308954FE7D9
S1130E509F775F934F933F932F939ED02F913F9112
S1130E604F915F910CD105C019F40EF060CFA9CF5A
S1130E7064CF8DDFC8F39638C0F707F80F92E89473
S1130E802BE33AEA48EB5FE708D10F920F920F92F7
S1130E904DB75EB70F92C0D0E4E5F0E016D04F91A5
S1130EA05F91EF91FF91E595EE1FFF1F49F0FE570B
S1130EB0E0684427EE0F441FFA95E1F74195550B7E
S1130EC032D00F9007FE26C00895DF93CF931F936F
S1130ED00F93FF92EF92DF927B018C01689405C01F
S1130EE0DA2EEF01D8D0FE01E894A5912591359131
S1130EF045915591AEF3EF0122DEFE019701A80161
S1130F00DA9479F7DF90EF90FF900F911F91CF91D2
S1130F10DF9108959B01AC0160E070E080E89FE3FD
S1130F2061CE05CF0FC133DFE8F39923D9F3940FD2
S1130F30511DBBF39150504094F059F0882332F086
S1130F40660F771F881F91505040C1F79E3F51058F
S1130F5044F7880F911D9695879597F908955F3FFB
S1130F60ACF0983E9CF0BB27869577956795B7952E
S1130F7008F4B1609395C1F7BB0F58F711F460FF03
S1130F80E8CF6F5F7F4F8F4F9F4FE3CF1BCF0EF0A4
S1130F90D9C0D3CE6894CBCEFADEC8F39923D1F36B
S1130FA0C6F3DF93CF931F930F93FF92C92FDD27CF
S1130FB088232AF02197660F771F881FDAF720E02D
S1130FC030E040E85FEB9FE3883920F0803E30F06A
S1130FD021968F77A3DDECE7F0E003C09FDDE9EA1B
S1130FE0F0E073DF8B01BE01EC01FB2E6F5771093A
S1130FF07595771F880B990B5FDE28E132E741E393
S11310005FE349D0AF2D9801AE01FF900F911F917E
S1131010CF91DF9194DDA2CEFA01DC01AA0FBB1FB0
S11310209B01AC01BF5728F422273327442750786B
S11310301FC0B75188F4AB2F0024469537952795E8
S1131040011CA395D2F3002069F0220F331F441F23
S1131050B395DAF30DD061CD61307105A0E88A074C
S1131060B94630F49B01AC0166277727882790782E
S1131070309621F0208331834283538308950BD02B
S11310806DCE5EDE28F063DE18F0952309F04FCEB6
S113109054CE112497CE73DEA0F3959FD1F3950F10
S11310A050E0551F629FF001729FBB27F00DB11DE8
S11310B0639FAA27F00DB11DAA1F649F6627B00D78
S11310C0A11D661F829F2227B00DA11D621F739F61
S11310D0B00DA11D621F839FA00D611D221F749F6F
S11310E03327A00D611D231F849F600D211D822FB6
S11310F0762F6A2F11249F5750408AF0E1F08823FD
S11311004AF0EE0FFF1FBB1F661F771F881F915009
S11311105040A9F79E3F510570F009CE53CE5F3F72
S1131120ECF3983EDCF3869577956795B795F7953C
S1131130E7959F5FC1F7FE2B880F911D96958795C4
S113114097F908959F3F31F0915020F48795779552
S11311506795B795880F911D9695879597F908958A
S1131160DB018F939F930E940109BF91AF91A29FCE
S1131170800D911DA39F900DB29F900D1124089591
S1131180A1E21A2EAA1BBB1BFD010DC0AA1FBB1F87
S1131190EE1FFF1FA217B307E407F50720F0A21BF9
S11311A0B30BE40BF50B661F771F881F991F1A9466
S11311B069F760957095809590959B01AC01BD0190
S11311C0CF010895052E97FB1EF400940E94F908A0
S11311D057FD07D00E94C00807FC03D04EF40C94BE
S11311E0F90850954095309521953F4F4F4F5F4FEB
S11311F0089590958095709561957F4F8F4F9F4F7F
S113120008950E941409A59F900DB49F900DA49F6A
S1131210800D911D11240895B7FF0C9401090E94BB
S11312200109821B930B0895A29FB001B39FC001D3
S1131230A39F700D811D1124911DB29F700D811DFE
S11312401124911D0895EF920F931F93CF93DF9371
S1131250E80147FF02C034E101C034E0E42FFF2776
S1131260E7FDF095F7FF03C0F195E195F109E32E51
S1131270022F2E2FAE010E947509CE01DF91CF916E
S11312801F910F91EF900895BB272A3051F49923B1
S113129042F4BDE290958095709561957F4F8F4F94
S11312A09F4F0C945409BB27FA01A62F62177105AE
S11312B081059105330B30FB66F0AA27660F771F73
S11312C0881F991FAA1FA21710F0A21B63953850FC
S11312D0A9F7A05DAA3308F0A95DA19336F7B1116F
S11312E0B1931082CA010C94CB0B6F927F929F92A0
S11312F0AF92BF92CF92DF92EF92FF920F931F9320
S1131300CF93DF93CDB7DEB729970FB6F894DEBF3E
S11313100FBECDBF6A01B22E102F0C3320F4FF2470
S1131320F394F00E02C04CE3F42E0F2D27E0AE012F
S11313304F5F5F4F0E94F30A7981272F2970213074
S113134031F0E1FC06C0E0FC06C060E005C06DE2DF
S113135003C06BE201C060E2AE2DA07173FF36C022
S1131360662311F084E001C083E08B1510F4B81AF1
S113137001C0B12CA1110BC0F6018B2D90E2882382
S113138019F091938150FBCFCB0CD11CB12C662367
S113139031F0F601608396012F5F3F4F6901C6016A
S11313A00396E2FE05C02EE4F601208331E404C076
S11313B02EE6F601208331E631832283FC012B2DB6
S11313C030E22223F1F131932150FBCF72FF40C070
S11313D0662311F084E001C083E08B1510F4B81A81
S11313E001C0B12CA1110BC0F6018B2D90E2882312
S11313F019F091938150FBCFCB0CD11CB12C6623F7
S113140031F0F601608396012F5F3F4F6901C601F9
S11314100396E2FE07C029E4F60120832EE421832B
S113142026E406C029E6F60120832EE6218326E67B
S11314302283FC012B2D30E2222319F03193215019
S1131440FBCFFC01EB0DF11D10828EEF9FEFB7C0B7
S1131450B1E0611101C0B0E04B2F50E0181619063D
S113146024F49C012F5F3F4F02C021E030E0240FA1
S1131470351F112329F0412F50E04F5F5F4F02C009
S113148040E050E0420F531F2B2D30E0421753072A
S113149014F4B41A01C0B12C2E2D287159F4F6019C
S11314A02B2D30E2222319F031932150FBCFCB0CAA
S11314B0D11CB12CBB2331F0F601608396012F5F60
S11314C03F4F6901A1110BC0F6012B2D30E32223FC
S11314D019F031932150FBCFCB0CD11CB12CF80E59
S11314E00A81372F3071A32E74FF03C0013309F42E
S11314F0FA941F142CF42F2D293018F028E001C081
S113150021E0682F392F97FF02C060E030E0462FBA
S1131510532F612C712C3EE2932EBC01621B710986
S11315209B01DC01A41BB50BE1E0F0E0EC0FFD1F17
S1131530AE0FBF1FE12EF12CF194E194F1084F3F5F
S1131540FFEF5F0731F4F6019082B6016F5F7F4FC2
S11315506B01841795074CF02417350734F4BD014B
S1131560660D771DFB01118101C010E34150510943
S1131570FFEF6F1A7F0AB6016F5F7F4F4E155F054D
S113158024F0F60110836B01DACF4817590739F4B8
S1131590063320F4053319F4A11001C011E3F60158
S11315A01083FB018B2D90E2882319F091938150D5
S11315B0FBCFFB01EB0DF11D108280E090E029963A
S11315C00FB6F894DEBF0FBECDBFDF91CF911F9150
S11315D00F91FF90EF90DF90CF90BF90AF909F90CE
S11315E07F906F900895283008F027E03327DA01C0
S11315F0990F311D87FD916000966105710539F4DD
S113160032602E5F3D9330E32A95E1F708959F3FC2
S113161030F080387105610509F03C5F3C5F3D9313
S1131620913008F08068911DDF93CF931F930F933F
S1131630FF92EF92192F987F9695E92F969596959C
S1131640E90FFF27E05DFE4F99273327EE24FF249F
S1131650A701E70105900894079428F4360FE71EC4
S1131660F81E491F511D660F771F881F991F069486
S1131670A1F70590079428F4E70EF81E491F561F9A
S1131680C11D770F881F991F661F0694A1F7059047
S1131690079428F4F80E491F561FC71FD11D880F41
S11316A0991F661F771F0694A1F70590079420F4ED
S11316B0490F561FC71FD81F990F661F771F881F12
S11316C00694A9F784911095177041F0D695C795A3
S11316D057954795F794E7941A95C1F7E6EDF0E02E
S11316E068941590159135916591959105907FE2D7
S11316F07395E118F10A430B560BC90BD009C0F7D7
S1131700E10CF11E431F561FC91FD01D7EF4703318
S113171011F48A95E6CFE894015030F0080F0AF4EA
S11317200027021708F4202F2395022F7A3328F07C
S113173079E37D932A95E9F710C07D932A9589F67C
S1131740069497956795379517951794E118F10ABC
S1131750430B560BC90BD00998F023957E917395D2
S11317607A3308F070E37C932013B8F77E917061AC
S11317707D9330F0839571E37D9370E32A95E1F7CF
S11317801124EF90FF900F911F91CF91DF91992732
S113179087FD90950895DC01FC01672F71917723F3
S11317A0E1F7329704C07C916D9370836291AE1718
S10D17B0BF07C8F30895F894FFCFB3
S11317BA74656D70657261747572653A20002043B0
S11317CA20646567000D0A0070726573737572652B
S11317DA3A200020506100616C7469747564653A3A
S10917EA2000204D000068
S9030000FC
