:100000000C942A000C9447000C9447000C94470071
:100010000C9447000C9447000C9447000C94470044
:100020000C9447000C9447000C9447000C94470034
:100030000C9447000C9414020C9447000C94470055
:100040000C9447000C9447000C9447000C94470014
:100050000C94470011241FBECFE5D8E0DEBFCDBF12
:1000600010E0A0E6B0E0E0ECF4E002C005900D92F4
:10007000A436B107D9F720E0A4E6B0E001C01D9294
:10008000A636B207E1F70E9493010C945E020C942D
:1000900000001ABA80E487B984E886B908958064BC
:1000A00087B9369A349BFECF84B195B108958CB947
:1000B0005D9BFECF0895CF93DF93EC018881882369
:1000C00031F021960E94570089918111FBCFDF9179
:1000D000CF910895EF92FF920F931F93CF93DF93E9
:1000E000EC0161307105B1F484E50E945700CE0146
:1000F0006AE070E00E943602C82F80E3860F0E94FB
:10010000570080E38C0F0E94570080E690E00E9429
:100110005B006BC062307105B1F488E40E94570047
:10012000CE016AE070E00E943602C82F80E3860F9D
:100130000E94570080E38C0F0E94570080E690E0F9
:100140000E945B0052C06330710509F04EC08DE41F
:100150000E9457008091640090916500C8EED3E042
:10016000BE010E94360280E3860F0E9457008091F4
:10017000640090916500BE010E94360204E610E022
:10018000B8010E94360280E3860F0E9457008091DA
:10019000640090916500BE010E943602B8010E9481
:1001A00036020F2EFAE0EF2EF12CF02DB7010E944F
:1001B000360280E3860F0E94570080916400909180
:1001C0006500BE010E943602B8010E943602B701E6
:1001D0000E943602B7010E94360280E3860F0E9419
:1001E000570080E690E00E945B00DF91CF911F9165
:1001F0000F91FF90EF90089583B3817008951F933E
:10020000CF93DF93C4EFD1E003C02197209789F00B
:100210000E94FC00182F8823C1F388E78A95F1F724
:100220000E94FC00182F882321F00E94FC008111FD
:10023000FCCF812FDF91CF911F910895FF920F93F3
:100240001F93CF93DF93C7E0D0E0F12C01E010E0E3
:100250000E94FF00882349F098010C2E02C0220F53
:10026000331F0A94E2F7F22A09C098010C2E02C04B
:10027000220F331F0A94E2F72095F222219740F7CC
:100280008F2DDF91CF911F910F91FF900895A0982E
:100290000895A09A0895A89A0895A89808950E948C
:1002A00049010E944D018FE99CE80197F1F700C0D8
:1002B00000000E944B019AE69A95F1F700C00E9457
:1002C000470108951F93CF93DF93C4EFD1E003C09C
:1002D0002197209789F00E94FC00182F8823C1F3F2
:1002E000C4EFD1E003C02197209729F00E94FC00C1
:1002F0008111F9CF01C010E0812FDF91CF911F91C3
:100300000895DC01FC0190E020E030E08191980F3D
:100310002F5F3F4F24303105C9F781E014962C91AF
:10032000921380E00895CF93DF9300D000D01F9206
:10033000CDB7DEB710BC83E389B988E98AB986E80E
:1003400080BDD29A0E94490078947E0126E0E20E98
:10035000F11CDD24DA9481E090E00E944F0090933C
:100360006500809364000E944F010E94620188230F
:1003700059F08E010F5F1F4F0E941E01F8018193FB
:100380008F01EE15FF05C1F7CE0101960E94810194
:10039000882309F3D7BA8B8161E070E090E00E9476
:1003A0006A00FFEF23ED80E3F15020408040E1F749
:1003B00000C000009FEFE4E3FCE09150E040F0401B
:1003C000E1F700C00000898162E070E090E00E94E7
:1003D0006A002FEF83ED90E3215080409040E1F7D9
:1003E00000C00000EFEFF4E32CE0E150F0402040CB
:1003F000E1F700C0000063E070E080E090E00E9460
:100400006A008FEF93EDE0E381509040E040E1F728
:1004100000C00000FFEF24E38CE0F150204080405A
:10042000E1F700C0000097CF1F920F920FB60F9216
:1004300011242F938F939F93C39A8CB18CB98234DC
:1004400061F4C29A2FEF89E698E1215080409040F4
:10045000E1F700C00000C29801C0C2989F918F913F
:100460002F910F900FBE0F901F90189597FB072E9E
:1004700016F4009407D077FD09D00E944A0207FCC9
:1004800005D03EF4909581959F4F089570956195A4
:100490007F4F0895AA1BBB1B51E107C0AA1FBB1FBA
:1004A000A617B70710F0A61BB70B881F991F5A9500
:1004B000A9F780959095BC01CD010895F894FFCFE0
:0404C0000D0A000021
:00000001FF
