:100000000C942A000C9447000C9447000C94470071
:100010000C9447000C9447000C9447000C94470044
:100020000C9447000C9447000C9447000C94470034
:100030000C9447000C9447000C9447000C94470024
:100040000C9447000C9447000C9447000C94470014
:100050000C94470011241FBECFE5D8E0DEBFCDBF12
:1000600011E0A0E6B0E0EEE3F5E002C005900D92ED
:10007000A030B107D9F721E0A0E0B1E001C01D92A6
:10008000A730B207E1F70E9401010C949D020C9485
:1000900000008CB95D9BFECF0895CF93DF93EC01F8
:1000A0008881882331F021960E944900899181112D
:1000B000FBCFDF91CF9108951ABA80E487B984E825
:1000C00086B90895806487B9369A349BFECF84B18F
:1000D00095B1089583B3817008951F93CF93DF93F3
:1000E000C4EFD1E003C02197209789F00E946A00F5
:1000F000182F8823C1F388E78A95F1F70E946A00D8
:10010000182F882321F00E946A008111FCCF812FD3
:10011000DF91CF911F910895FF920F931F93CF937B
:10012000DF93C7E0D0E0F12C01E010E00E946D0009
:10013000882349F098010C2E02C0220F331F0A9425
:10014000E2F7F22A09C098010C2E02C0220F331FD9
:100150000A94E2F72095F222219740F78F2DDF9144
:10016000CF911F910F91FF900895A0980895A09AA4
:100170000895A89A0895A89808950E94B7000E942B
:10018000BB008FE99CE80197F1F700C000000E94D6
:10019000B9009AE69A95F1F700C00E94B50008955B
:1001A0001F93CF93DF93C4EFD1E003C02197209733
:1001B00089F00E946A00182F8823C1F3C4EFD1E0B0
:1001C00003C02197209729F00E946A008111F9CF7E
:1001D00001C010E0812FDF91CF911F910895DC01C4
:1001E000FC0190E020E030E08191980F2F5F3F4FBD
:1001F00024303105C9F781E014962C91921380E0E8
:10020000089510BC83E389B988E18AB986E880BD86
:100210000E945C000F2EF8EEAF2EF3E0BF2EF02D03
:100220000F2EF4E6CF2ED12CF02D0AE010E00F2E89
:10023000F4E08F2EF1E09F2EF02D0E94BD000E9471
:10024000D0008823C9F01092010110920001C0E093
:10025000D0E00E948C00CE5FDE4F88838091000149
:1002600090910101019690930101809300018530E6
:10027000910510F4EC01EDCF82E091E00E94EF00D7
:10028000882321F12FEF83ED90E3215080409040AF
:10029000E1F700C00000EFEFF4E32CE0E150F040A4
:1002A0002040E1F700C000008FEF93EDE0E38150C4
:1002B0009040E040E1F700C00000FFEF24E38CE055
:1002C000F15020408040E1F700C0000081E090E064
:1002D0000E946200EC0180E690E00E944D00CE0199
:1002E000B5010E9475027C0180E3860F0E944900DF
:1002F000C701B6010E9475027C0180E3860F0E944F
:100300004900C701B8010E9475027C0180E3860F95
:100310000E944900C701B8010E94750280E3860F60
:100320000E9449009FEFE3EDF0E39150E040F04080
:10033000E1F700C00000C438D3400CF443C085E7A7
:1003400090E00E944D008FEF94E3ECE081509040EC
:10035000E040E1F700C000008CE790E00E944D0013
:10036000FFEF24E38CE0F15020408040E1F700C033
:1003700000008AE890E00E944D009FEFE4E3FCE07B
:100380009150E040F040E1F700C000008DE00E9495
:1003900049002FEF83EC99E0215080409040E1F735
:1003A00000C0000081EA90E00E944D00EFEFF4E30E
:1003B0002CE0E150F0402040E1F700C000008AE16D
:1003C0000E944900F401808190E044970CF443C0FE
:1003D00085E790E00E944D00FFEF24E38CE0F150B0
:1003E00020408040E1F700C000008CE790E00E94D0
:1003F0004D009FEFE4E3FCE09150E040F040E1F776
:1004000000C000008AE890E00E944D002FEF84E3D6
:100410009CE0215080409040E1F700C000008DE05A
:100420000E944900EFEFF3EC29E0E150F04020405A
:10043000E1F700C000008CEB90E00E944D008FEFD0
:1004400094E3ECE081509040E040E1F700C0000010
:100450008AE10E9449008091020190E08D970CF49E
:10046000ECCE85E790E00E944D00FFEF24E38CE0A6
:10047000F15020408040E1F700C000008CE790E0A0
:100480000E944D009FEFE4E3FCE09150E040F0401B
:10049000E1F700C000008AE890E00E944D002FEFD5
:1004A00084E39CE0215080409040E1F700C00000D0
:1004B0008DE00E944900EFEFF3EC29E0E150F040BD
:1004C0002040E1F700C0000084ED90E00E944D0064
:1004D0008FEF94E3ECE081509040E040E1F700C002
:1004E00000008AE10E944900A8CE97FB072E16F46F
:1004F000009407D077FD09D00E94890207FC05D03F
:100500003EF4909581959F4F0895709561957F4F2A
:100510000895AA1BBB1B51E107C0AA1FBB1FA6174A
:10052000B70710F0A61BB70B881F991F5A95A9F79C
:0E05300080959095BC01CD010895F894FFCF01
:10053E000D0A204D6F6973747572652073656E7345
:10054E006F720D0A000D0A41540D0A000D0A415436
:10055E002B434D47463D310D0A000D0A41542B43A6
:10056E004D47533D2239393930343232343330220B
:10057E00000D0A4D6F697374757265206C65766532
:10058E006C20697320686967680D0A000D0A54654E
:10059E006D70657261747572652069732068696724
:1005AE00680D0A000D0A68756D69646974792069B1
:1005BE007320686967680D0A000D0A41542B434D7C
:1005CE0047533D22383538363832353139362200E8
:00000001FF
